{
  "contractName": "EventTicketsV2",
  "abi": [
    {
      "inputs": [],
      "payable": false,
      "stateMutability": "nonpayable",
      "type": "constructor"
    },
    {
      "anonymous": false,
      "inputs": [
        {
          "indexed": false,
          "internalType": "address",
          "name": "buyer",
          "type": "address"
        },
        {
          "indexed": false,
          "internalType": "uint256",
          "name": "eventId",
          "type": "uint256"
        },
        {
          "indexed": false,
          "internalType": "uint256",
          "name": "numTickets",
          "type": "uint256"
        }
      ],
      "name": "LogBuyTickets",
      "type": "event"
    },
    {
      "anonymous": false,
      "inputs": [
        {
          "indexed": false,
          "internalType": "address",
          "name": "owner",
          "type": "address"
        },
        {
          "indexed": false,
          "internalType": "uint256",
          "name": "balance",
          "type": "uint256"
        },
        {
          "indexed": false,
          "internalType": "uint256",
          "name": "eventId",
          "type": "uint256"
        }
      ],
      "name": "LogEndSale",
      "type": "event"
    },
    {
      "anonymous": false,
      "inputs": [
        {
          "indexed": false,
          "internalType": "string",
          "name": "desc",
          "type": "string"
        },
        {
          "indexed": false,
          "internalType": "string",
          "name": "url",
          "type": "string"
        },
        {
          "indexed": false,
          "internalType": "uint256",
          "name": "ticketsAvailable",
          "type": "uint256"
        },
        {
          "indexed": false,
          "internalType": "uint256",
          "name": "eventId",
          "type": "uint256"
        }
      ],
      "name": "LogEventAdded",
      "type": "event"
    },
    {
      "anonymous": false,
      "inputs": [
        {
          "indexed": false,
          "internalType": "address",
          "name": "accountRefunded",
          "type": "address"
        },
        {
          "indexed": false,
          "internalType": "uint256",
          "name": "eventId",
          "type": "uint256"
        },
        {
          "indexed": false,
          "internalType": "uint256",
          "name": "numTickets",
          "type": "uint256"
        }
      ],
      "name": "LogGetRefund",
      "type": "event"
    },
    {
      "payable": true,
      "stateMutability": "payable",
      "type": "fallback"
    },
    {
      "constant": true,
      "inputs": [],
      "name": "idGenerator",
      "outputs": [
        {
          "internalType": "uint256",
          "name": "",
          "type": "uint256"
        }
      ],
      "payable": false,
      "stateMutability": "view",
      "type": "function"
    },
    {
      "constant": true,
      "inputs": [],
      "name": "owner",
      "outputs": [
        {
          "internalType": "address payable",
          "name": "",
          "type": "address"
        }
      ],
      "payable": false,
      "stateMutability": "view",
      "type": "function"
    },
    {
      "constant": false,
      "inputs": [
        {
          "internalType": "string",
          "name": "_description",
          "type": "string"
        },
        {
          "internalType": "string",
          "name": "_url",
          "type": "string"
        },
        {
          "internalType": "uint256",
          "name": "_tickets",
          "type": "uint256"
        }
      ],
      "name": "addEvent",
      "outputs": [
        {
          "internalType": "uint256",
          "name": "",
          "type": "uint256"
        }
      ],
      "payable": false,
      "stateMutability": "nonpayable",
      "type": "function"
    },
    {
      "constant": true,
      "inputs": [
        {
          "internalType": "uint256",
          "name": "_eventId",
          "type": "uint256"
        }
      ],
      "name": "readEvent",
      "outputs": [
        {
          "internalType": "string",
          "name": "description",
          "type": "string"
        },
        {
          "internalType": "string",
          "name": "website",
          "type": "string"
        },
        {
          "internalType": "uint256",
          "name": "totalTickets",
          "type": "uint256"
        },
        {
          "internalType": "uint256",
          "name": "sales",
          "type": "uint256"
        },
        {
          "internalType": "bool",
          "name": "isOpen",
          "type": "bool"
        }
      ],
      "payable": false,
      "stateMutability": "view",
      "type": "function"
    },
    {
      "constant": false,
      "inputs": [
        {
          "internalType": "uint256",
          "name": "_ticketId",
          "type": "uint256"
        },
        {
          "internalType": "uint256",
          "name": "_tickets",
          "type": "uint256"
        }
      ],
      "name": "buyTickets",
      "outputs": [],
      "payable": true,
      "stateMutability": "payable",
      "type": "function"
    },
    {
      "constant": false,
      "inputs": [
        {
          "internalType": "uint256",
          "name": "_ticketId",
          "type": "uint256"
        }
      ],
      "name": "getRefund",
      "outputs": [],
      "payable": false,
      "stateMutability": "nonpayable",
      "type": "function"
    },
    {
      "constant": true,
      "inputs": [
        {
          "internalType": "uint256",
          "name": "_ticketId",
          "type": "uint256"
        }
      ],
      "name": "getBuyerNumberTickets",
      "outputs": [
        {
          "internalType": "uint256",
          "name": "totalTickets",
          "type": "uint256"
        }
      ],
      "payable": false,
      "stateMutability": "view",
      "type": "function"
    },
    {
      "constant": false,
      "inputs": [
        {
          "internalType": "uint256",
          "name": "_ticketId",
          "type": "uint256"
        }
      ],
      "name": "endSale",
      "outputs": [],
      "payable": false,
      "stateMutability": "nonpayable",
      "type": "function"
    }
  ],
  "bytecode": "0x6080604052606460015534801561001557600080fd5b50336000806101000a81548173ffffffffffffffffffffffffffffffffffffffff021916908373ffffffffffffffffffffffffffffffffffffffff160217905550610f3e806100656000396000f3fe60806040526004361061007b5760003560e01c80638da5cb5b1161004e5780638da5cb5b146102bf578063d2f0be9914610316578063e1ba30a914610351578063e7bd92b91461048a5761007b565b806304d1a846146100805780633ddedd38146100bb5780634da19f201461010a5780638627df4614610287575b600080fd5b34801561008c57600080fd5b506100b9600480360360208110156100a357600080fd5b81019080803590602001909291905050506104b5565b005b3480156100c757600080fd5b506100f4600480360360208110156100de57600080fd5b810190808035906020019092919050505061063b565b6040518082815260200191505060405180910390f35b34801561011657600080fd5b506102716004803603606081101561012d57600080fd5b810190808035906020019064010000000081111561014a57600080fd5b82018360208201111561015c57600080fd5b8035906020019184600183028401116401000000008311171561017e57600080fd5b91908080601f016020809104026020016040519081016040528093929190818152602001838380828437600081840152601f19601f820116905080830192505050505050509192919290803590602001906401000000008111156101e157600080fd5b8201836020820111156101f357600080fd5b8035906020019184600183028401116401000000008311171561021557600080fd5b91908080601f016020809104026020016040519081016040528093929190818152602001838380828437600081840152601f19601f82011690508083019250505050505050919291929080359060200190929190505050610698565b6040518082815260200191505060405180910390f35b6102bd6004803603604081101561029d57600080fd5b8101908080359060200190929190803590602001909291905050506108f5565b005b3480156102cb57600080fd5b506102d4610ace565b604051808273ffffffffffffffffffffffffffffffffffffffff1673ffffffffffffffffffffffffffffffffffffffff16815260200191505060405180910390f35b34801561032257600080fd5b5061034f6004803603602081101561033957600080fd5b8101908080359060200190929190505050610af3565b005b34801561035d57600080fd5b5061038a6004803603602081101561037457600080fd5b8101908080359060200190929190505050610c93565b60405180806020018060200186815260200185815260200184151515158152602001838103835288818151815260200191508051906020019080838360005b838110156103e45780820151818401526020810190506103c9565b50505050905090810190601f1680156104115780820380516001836020036101000a031916815260200191505b50838103825287818151815260200191508051906020019080838360005b8381101561044a57808201518184015260208101905061042f565b50505050905090810190601f1680156104775780820380516001836020036101000a031916815260200191505b5097505050505050505060405180910390f35b34801561049657600080fd5b5061049f610e5e565b6040518082815260200191505060405180910390f35b6000809054906101000a900473ffffffffffffffffffffffffffffffffffffffff1673ffffffffffffffffffffffffffffffffffffffff163373ffffffffffffffffffffffffffffffffffffffff161461050e57600080fd5b60006003600083815260200190815260200160002060050160006101000a81548160ff021916908315150217905550600060015460036000848152602001908152602001600020600301540290506000809054906101000a900473ffffffffffffffffffffffffffffffffffffffff1673ffffffffffffffffffffffffffffffffffffffff166108fc829081150290604051600060405180830381858888f193505050501580156105c3573d6000803e3d6000fd5b507f6497e6dff32a753fe6b3a2b3430e5f86d65c6e35cf360d52eb3494711d7d7a1c338284604051808473ffffffffffffffffffffffffffffffffffffffff1673ffffffffffffffffffffffffffffffffffffffff168152602001838152602001828152602001935050505060405180910390a15050565b60006003600083815260200190815260200160002060040160003373ffffffffffffffffffffffffffffffffffffffff1673ffffffffffffffffffffffffffffffffffffffff168152602001908152602001600020549050919050565b60008060009054906101000a900473ffffffffffffffffffffffffffffffffffffffff1673ffffffffffffffffffffffffffffffffffffffff163373ffffffffffffffffffffffffffffffffffffffff16146106f357600080fd5b83600360006002548152602001908152602001600020600001908051906020019061071f929190610e64565b5082600360006002548152602001908152602001600020600101908051906020019061074c929190610e64565b508160036000600254815260200190815260200160002060020181905550600160036000600254815260200190815260200160002060050160006101000a81548160ff0219169083151502179055506002546003600060025481526020019081526020016000206006018190555060016002600082825401925050819055507f7d1d82c13762b51876068c852c5d404d0fa38fb615c14eebefafb60bdb4bd1b2848484600254604051808060200180602001858152602001848152602001838103835287818151815260200191508051906020019080838360005b83811015610842578082015181840152602081019050610827565b50505050905090810190601f16801561086f5780820380516001836020036101000a031916815260200191505b50838103825286818151815260200191508051906020019080838360005b838110156108a857808201518184015260208101905061088d565b50505050905090810190601f1680156108d55780820380516001836020036101000a031916815260200191505b50965050505050505060405180910390a160016002540390509392505050565b81600115156003600083815260200190815260200160002060050160009054906101000a900460ff1615151461092a57600080fd5b8282806003600084815260200190815260200160002060030154600360008581526020019081526020016000206002015403101561096757600080fd5b83806001540234101561097957600080fd5b84856003600089815260200190815260200160002060040160003373ffffffffffffffffffffffffffffffffffffffff1673ffffffffffffffffffffffffffffffffffffffff168152602001908152602001600020600082825401925050819055508560036000898152602001908152602001600020600301600082825401925050819055507f15827fa78fedf80f93aa72ce61e705b1362cab60ae596b1bb327076fc3856c24338888604051808473ffffffffffffffffffffffffffffffffffffffff1673ffffffffffffffffffffffffffffffffffffffff168152602001838152602001828152602001935050505060405180910390a160008160015402340390503373ffffffffffffffffffffffffffffffffffffffff166108fc829081150290604051600060405180830381858888f19350505050158015610ac3573d6000803e3d6000fd5b505050505050505050565b6000809054906101000a900473ffffffffffffffffffffffffffffffffffffffff1681565b8060006003600083815260200190815260200160002060040160003373ffffffffffffffffffffffffffffffffffffffff1673ffffffffffffffffffffffffffffffffffffffff1681526020019081526020016000205411610b5457600080fd5b60006003600084815260200190815260200160002060040160003373ffffffffffffffffffffffffffffffffffffffff1673ffffffffffffffffffffffffffffffffffffffff1681526020019081526020016000205490508060036000858152602001908152602001600020600301600082825403925050819055503373ffffffffffffffffffffffffffffffffffffffff166108fc60015483029081150290604051600060405180830381858888f19350505050158015610c1a573d6000803e3d6000fd5b507f73ebb2050cb3ee6869929e7a26925e92e201f14902e155037f1f90af931b3233338483604051808473ffffffffffffffffffffffffffffffffffffffff1673ffffffffffffffffffffffffffffffffffffffff168152602001838152602001828152602001935050505060405180910390a1505050565b6060806000806000600360008781526020019081526020016000206000018054600181600116156101000203166002900480601f016020809104026020016040519081016040528092919081815260200182805460018160011615610100020316600290048015610d455780601f10610d1a57610100808354040283529160200191610d45565b820191906000526020600020905b815481529060010190602001808311610d2857829003601f168201915b50505050509450600360008781526020019081526020016000206001018054600181600116156101000203166002900480601f016020809104026020016040519081016040528092919081815260200182805460018160011615610100020316600290048015610df65780601f10610dcb57610100808354040283529160200191610df6565b820191906000526020600020905b815481529060010190602001808311610dd957829003601f168201915b5050505050935060036000878152602001908152602001600020600201549250600360008781526020019081526020016000206003015491506003600087815260200190815260200160002060050160009054906101000a900460ff16905091939590929450565b60025481565b828054600181600116156101000203166002900490600052602060002090601f016020900481019282601f10610ea557805160ff1916838001178555610ed3565b82800160010185558215610ed3579182015b82811115610ed2578251825591602001919060010190610eb7565b5b509050610ee09190610ee4565b5090565b610f0691905b80821115610f02576000816000905550600101610eea565b5090565b9056fea265627a7a72315820281c3897d7aaebbf60fb20a8c130f618ca8033e7caa4807c10f60c23d75d4d0d64736f6c634300050c0032",
  "source": "pragma solidity ^0.5.0;\n\n    /*\n        The EventTicketsV2 contract keeps track of the details and ticket sales of multiple events.\n     */\ncontract EventTicketsV2 {\n\n    /*\n        Define an public owner variable. Set it to the creator of the contract when it is initialized.\n    */\n    address payable public owner;\n    uint PRICE_TICKET = 100 wei;\n\n    /*\n        Create a variable to keep track of the event ID numbers.\n    */\n    uint public idGenerator;\n\n    /*\n        Define an Event struct, similar to the V1 of this contract.\n        The struct has 6 fields: description, website (URL), totalTickets, sales, buyers, and isOpen.\n        Choose the appropriate variable type for each field.\n        The \"buyers\" field should keep track of addresses and how many tickets each buyer purchases.\n    */\n    struct Event {\n        string description;\n        string website;\n        uint totalTickets;\n        uint sales;\n        mapping (address => uint) buyers;\n        bool isOpen;\n        uint id;\n    }\n\n    /*\n        Create a mapping to keep track of the events.\n        The mapping key is an integer, the value is an Event struct.\n        Call the mapping \"events\".\n    */\n    mapping (uint => Event) events;\n\n    event LogEventAdded(string desc, string url, uint ticketsAvailable, uint eventId);\n    event LogBuyTickets(address buyer, uint eventId, uint numTickets);\n    event LogGetRefund(address accountRefunded, uint eventId, uint numTickets);\n    event LogEndSale(address owner, uint balance, uint eventId);\n\n    /*\n        Create a modifier that throws an error if the msg.sender is not the owner.\n    */\n    modifier verifyCaller() { require (msg.sender == owner); _;}\n    modifier isEventOpen(uint _ticketId) { require (events[_ticketId].isOpen == true); _;}\n    modifier enoughAvailableTickets(uint _ticketId, uint _tickets) {\n        require(events[_ticketId].totalTickets - events[_ticketId].sales >= _tickets); _;\n    }\n    modifier paidEnough(uint _tickets) {\n        require(msg.value >= PRICE_TICKET * _tickets); _;\n    }\n    modifier checkValue(uint _tickets) {\n        _;\n        uint amountToRefund = msg.value - PRICE_TICKET * _tickets;\n        msg.sender.transfer(amountToRefund);\n    }\n    modifier hasTickets(uint _ticketId) { require(events[_ticketId].buyers[msg.sender] > 0); _;}\n\n    /*\n        Define a constructor.\n        Set the owner to the creator of the contract.\n    */\n    constructor() public {\n        owner = msg.sender;\n    }\n\n    function() external payable {\n        revert();\n    }\n\n    /*\n        Define a function called addEvent().\n        This function takes 3 parameters, an event description, a URL, and a number of tickets.\n        Only the contract owner should be able to call this function.\n        In the function:\n            - Set the description, URL and ticket number in a new event.\n            - set the event to open\n            - set an event ID\n            - increment the ID\n            - emit the appropriate event\n            - return the event's ID\n    */\n    function addEvent(string memory _description, string memory _url, uint _tickets)\n        public\n        verifyCaller\n        returns(uint)\n    {\n        events[idGenerator].description = _description;\n        events[idGenerator].website = _url;\n        events[idGenerator].totalTickets = _tickets;\n        events[idGenerator].isOpen = true;\n        events[idGenerator].id = idGenerator;\n        idGenerator += 1;\n        emit LogEventAdded(_description, _url, _tickets, idGenerator);\n\n        return idGenerator - 1;\n    }\n\n    /*\n        Define a function called readEvent().\n        This function takes one parameter, the event ID.\n        The function returns information about the event this order:\n            1. description\n            2. URL\n            3. tickets available\n            4. sales\n            5. isOpen\n    */\n    function readEvent(uint _eventId)\n        public\n        view\n        returns(string memory description, string memory website, uint totalTickets, uint sales, bool isOpen)\n    {\n        description = events[_eventId].description;\n        website = events[_eventId].website;\n        totalTickets = events[_eventId].totalTickets;\n        sales = events[_eventId].sales;\n        isOpen = events[_eventId].isOpen;\n    }\n\n    /*\n        Define a function called buyTickets().\n        This function allows users to buy tickets for a specific event.\n        This function takes 2 parameters, an event ID and a number of tickets.\n        The function checks:\n            - that the event sales are open\n            - that the transaction value is sufficient to purchase the number of tickets\n            - that there are enough tickets available to complete the purchase\n        The function:\n            - increments the purchasers ticket count\n            - increments the ticket sale count\n            - refunds any surplus value sent\n            - emits the appropriate event\n    */\n    function buyTickets(uint _ticketId, uint _tickets)\n        public\n        payable\n        isEventOpen(_ticketId)\n        enoughAvailableTickets(_ticketId, _tickets)\n        paidEnough(_tickets)\n        checkValue(_tickets)\n    {\n        events[_ticketId].buyers[msg.sender] += _tickets;\n        events[_ticketId].sales += _tickets;\n        emit LogBuyTickets(msg.sender, _ticketId, _tickets);\n    }\n\n    /*\n        Define a function called getRefund().\n        This function allows users to request a refund for a specific event.\n        This function takes one parameter, the event ID.\n        TODO:\n            - check that a user has purchased tickets for the event\n            - remove refunded tickets from the sold count\n            - send appropriate value to the refund requester\n            - emit the appropriate event\n    */\n    function getRefund(uint _ticketId)\n        public\n        hasTickets(_ticketId)\n    {\n        uint ticketsToRefund = events[_ticketId].buyers[msg.sender];\n        events[_ticketId].sales -= ticketsToRefund;\n        msg.sender.transfer(ticketsToRefund * PRICE_TICKET);\n        emit LogGetRefund(msg.sender, _ticketId, ticketsToRefund);\n    }\n\n    /*\n        Define a function called getBuyerNumberTickets()\n        This function takes one parameter, an event ID\n        This function returns a uint, the number of tickets that the msg.sender has purchased.\n    */\n    function getBuyerNumberTickets(uint _ticketId)\n        public\n        view\n        returns(uint totalTickets)\n    {\n        totalTickets = events[_ticketId].buyers[msg.sender];\n    }\n\n    /*\n        Define a function called endSale()\n        This function takes one parameter, the event ID\n        Only the contract owner can call this function\n        TODO:\n            - close event sales\n            - transfer the balance from those event sales to the contract owner\n            - emit the appropriate event\n    */\n    function endSale(uint _ticketId)\n        public\n        verifyCaller\n    {\n        events[_ticketId].isOpen = false;\n        uint eventBalanceSales = events[_ticketId].sales * PRICE_TICKET;\n        owner.transfer(eventBalanceSales);\n\n        emit LogEndSale(msg.sender, eventBalanceSales, _ticketId);\n    }\n}\n",
  "sourcePath": "/Users/adriamartiblasco/Projects/consensys-bootcamp/module-7/event-ticket-exercise-adriamarti/contracts/EventTicketsV2.sol",
  "compiler": {
    "name": "solc",
    "version": "0.5.12+commit.7709ece9.Emscripten.clang"
  },
  "schemaVersion": "3.0.19",
  "updatedAt": "2019-11-28T19:11:16.524Z",
  "networkType": "ethereum",
  "devdoc": {
    "methods": {}
  },
  "userdoc": {
    "methods": {}
  }
}